:100000000C945E000C9486000C9486000C94860080
:100010000C9486000C9486000C9486000C947D044D
:100020000C9486000C9486000C9486000C94860038
:100030000C9486000C9486000C9486000C94860028
:100040000C94FF040C9486000C9486000C9486009B
:100050000C9486000C9449050C9486000C94860040
:100060000C9486000C948600000000080002010039
:100070000003040700000000000000000200000070
:1000800000250028002B0000000000240027002A83
:100090000004040404040404040202020202020331
:1000A000030303030301020408102040800102043B
:1000B00008102001020408102000070C11241FBEA4
:1000C000CFEFD8E0DEBFCDBF11E0A0E0B1E0EEE7BA
:1000D000FEE102C005900D92A630B107D9F721E0EC
:1000E000A6E0B1E001C01D92AC3BB207E1F710E021
:1000F000CEE5D0E004C02197FE010E94370FCD3538
:10010000D107C9F70E9474060C943D0F0C940000AF
:1001100090E0FC01EB55FF4F2491FC01EF56FF4F9F
:100120008491882399F090E0880F991FFC01E9578A
:10013000FF4FA591B491FC01E358FF4F8591949135
:100140008FB7F894EC91E22BEC938FBF08954F9208
:100150005F926F927F928F929F92AF92BF92CF9257
:10016000DF92EF92FF921F93CF93DF9320910101D3
:10017000283021F02F3F09F009C204C0ECE7F0E07D
:10018000149172C028E020930101ECE7F0E0149193
:100190001F3F09F4FBC1113009F1123009F441C0CD
:1001A000111162C014BC15BC24B5226024BD25B554
:1001B000216025BDE9E9F0E0E491F0E0EE0FFF1FDA
:1001C000E358FF4F259134913093AB012093AA015E
:1001D000EDEAF0E0E491E093A90148C010928000BC
:1001E000109281002091810028602093810020914D
:1001F0008100216020938100E9E9F0E0E491F0E0E2
:10020000EE0FFF1FE358FF4F259134913093A80163
:100210002093A701EDEAF0E0E491E093A60111E05C
:1002200025C01092B0001092B1002091B000226061
:100230002093B0002091B10021602093B100E9E942
:10024000F0E0E491F0E0EE0FFF1FE358FF4F25913F
:1002500034913093A5012093A401EDEAF0E0E491FC
:10026000E093A30112E002C017FD90C1EC0188E009
:100270000E9488004E01A12CB12C812F8D7F09F0A6
:10028000B6C060E072E18AE790E0A50194010E94A7
:100290006E0C29013A0169017A0121E0C21AD108E4
:1002A000E108F1088FEFC816D104E104F10409F068
:1002B00008F44BC060E472E48FE090E0A501940183
:1002C0000E946E0C69017A0181E0C81AD108E10828
:1002D000F108123001F52FEFC216D104E104F10448
:1002E00009F008F451C160E970ED83E090E0A501E8
:1002F00094010E946E0C69017A0181E0C81AD1084C
:10030000E108F1082FEFC216D104E104F10409F06D
:10031000C0F593E065C08FEFC816D104E104F10485
:10032000B1F0A8F068E478EE81E090E0A5019401D6
:100330000E946E0C69017A0181E0C81AD108E108B7
:10034000F108112309F4C8C016C191E001C092E080
:10035000112391F045C0D301C2012AE0B595A795BC
:10036000979587952A95D1F76C017D0121E0C21AF6
:10037000D108E108F10895E085B5887F982B95BDF7
:1003800065C068E478EE81E090E0A50194010E94E8
:100390006E0C69017A0181E0C81AD108E108F10800
:1003A0002FEFC216D104E104F10409F008F492C061
:1003B00064E274EF80E090E0A50194010E946E0C6D
:1003C00069017A0181E0C81AD108E108F1082FEF2C
:1003D000C216D104E104F10411F008F09FC095E0C9
:1003E0008091B100887F982B9093B1002FC060E07E
:1003F00072E18AE790E0A50194010E946E0C690108
:100400007A0181E0C81AD108E108F108C114D104C9
:1004100021E0E206F10488F068E478EE81E090E003
:10042000A50194010E946E0C69017A0181E0C81A4D
:10043000D108E108F10893E001C091E0113031F4F6
:1004400080918100887F892B809381009E01220FFB
:10045000331FAAE0B0E00E94C20C28EE33E040E077
:1004600050E00E94A00C113099F0123019F11111D6
:100470008DC0C7BC2093B4013093B5014093B60141
:100480005093B70180916E00826080936E007EC0B1
:10049000D0928900C09288002093B0013093B101BE
:1004A0004093B2015093B30180916F0082608093BA
:1004B0006F006CC0C092B3002093AC013093AD01CB
:1004C0004093AE015093AF018091700082608093A1
:1004D00070005CC094E084CF8FEFC816D104E104B3
:1004E000F104D1F0C8F062E17AE780E090E0A50184
:1004F00094010E946E0C69017A0181E0C81AD1084A
:10050000E108F1082FEFC216D104E104F10411F063
:1005100008F021CF94E030CF93E02ECF62E17AE76C
:1005200080E090E0A50194010E946E0C69017A01BF
:1005300081E0C81AD108E108F1082FEFC216D104F2
:10054000E104F104B1F0A8F0D301C2015AE0B5957D
:10055000A795979587955A95D1F76C017D0121E074
:10056000C21AD108E108F108112309F404CF97E079
:1005700037CF96E0EDCE8FEFC816D104E104F10439
:1005800009F060F694E0E4CE92E02ACFDF91CF91BB
:100590001F91FF90EF90DF90CF90BF90AF909F9012
:1005A0008F907F906F905F904F90089590E0FC0146
:1005B000E859FF4F3491FC01EB55FF4F2491FC01AA
:1005C000EF56FF4FE491EE2309F43BC0332339F19A
:1005D000333091F038F43130A9F0323001F584B580
:1005E0008F7D12C0373091F03830A1F03430B9F43B
:1005F000809180008F7D03C0809180008F778093F1
:1006000080000DC084B58F7784BD09C08091B00093
:100610008F7703C08091B0008F7D8093B000F0E0B1
:10062000EE0FFF1FE358FF4FA591B4918FB7F894D9
:10063000EC91611103C020952E2301C02E2B2C9329
:100640008FBF08951F93CF93DF93182FEB010E9464
:100650008800209711F460E004C0CF3FD10539F441
:1006600061E0812FDF91CF911F910C94D602E12F91
:10067000F0E0E859FF4FE491E330F9F048F4E1305D
:10068000B9F0E230A1F584B5806284BDC8BD34C044
:10069000E730E9F0E83019F1E43049F58091800065
:1006A000806280938000D0938B00C0938A0024C026
:1006B00084B5806884BDC7BD1FC0809180008068FC
:1006C00080938000D0938900C093880015C08091EA
:1006D000B00080688093B000C093B3000DC08091DB
:1006E000B00080628093B000C093B40005C0C038F1
:1006F000D1050CF0B5CFAFCFDF91CF911F91089509
:100700003FB7F89480914B0190914C01A0914D011D
:10071000B0914E0126B5A89B05C02F3F19F0019658
:10072000A11DB11D3FBFBA2FA92F982F8827820F77
:10073000911DA11DB11DBC01CD0142E0660F771FC7
:10074000881F991F4A95D1F708952FB7F8946091A3
:100750004701709148018091490190914A012FBF52
:1007600008950F931F930E94A5030091B801109163
:10077000B9012091BA013091BB01601B710B820B52
:10078000930B1F910F9108950E94A5036093B801E8
:100790007093B9018093BA019093BB0188EB91E00B
:1007A000089560E070E089E00E94220360E070E05C
:1007B0008AE00E94220360E070E086E00C9422034D
:1007C0004F925F926F927F928F929F92AF92BF9261
:1007D000CF92DF92EF92FF92C0906001D0906101C2
:1007E000E0906201F0906301A701960160915C01C5
:1007F00070915D0180915E0190915F010E94430DB7
:1008000020E030E04FE753E40E94A20E2B013C01B0
:10081000609342017093430180934401909345019A
:10082000A7019601609158017091590180915A0178
:1008300090915B010E94430D20E030E04FE753E4CC
:100840000E94A20E4B015C0160933E0170933F0138
:100850008093400190934101A7019601609154015A
:100860007091550180915601909157010E94430D5E
:1008700020E030E04FE753E40E94A20E6B017C01C0
:1008800060933A0170933B0180933C0190933D014A
:10089000C301B2010E94B50D89E00E942203C50187
:1008A000B4010E94B50D8AE00E942203C701B6017F
:1008B0000E94B50D86E0FF90EF90DF90CF90BF9043
:1008C000AF909F908F907F906F905F904F900C941F
:1008D0002203CF92DF92EF92FF926B017C010E9484
:1008E000C4030E94B1036C157D058E059F05C8F3F6
:1008F000FF90EF90DF90CF9008951F920F920FB668
:100900000F9211242F933F934F935F936F937F9395
:100910008F939F93AF93BF93EF93FF938091AC011D
:100920009091AD01A091AE01B091AF01892B8A2BBE
:100930008B2B59F18091A301E091A401F091A501C5
:100940009081892780838091AC019091AD01A09125
:10095000AE01B091AF01181619061A061B060CF06D
:100960003DC08091AC019091AD01A091AE01B091DC
:10097000AF010197A109B1098093AC019093AD013A
:10098000A093AE01B093AF0129C080910101ECE7C3
:10099000F0E0E4919FEF90930101E130B9F098F01D
:1009A000E230C9F4909170009D7F9093700091E0C7
:1009B0009093B0009091B100987F94609093B100B3
:1009C0001092B30008C010926E0005C090916F00A5
:1009D0009D7F90936F0060E00E94D602FF91EF919F
:1009E000BF91AF919F918F917F916F915F914F9147
:1009F0003F912F910F900FBE0F901F9018951F924F
:100A00000F920FB60F9211242F933F938F939F93C2
:100A1000AF93BF938091470190914801A091490104
:100A2000B0914A013091460123E0230F2D3720F485
:100A30000196A11DB11D05C026E8230F0296A11D38
:100A4000B11D209346018093470190934801A093E4
:100A50004901B0934A0180914B0190914C01A091C2
:100A60004D01B0914E010196A11DB11D80934B0126
:100A700090934C01A0934D01B0934E01BF91AF9163
:100A80009F918F913F912F910F900FBE0F901F90CC
:100A900018951F920F920FB60F9211242F933F9328
:100AA0004F935F936F937F938F939F93AF93BF9376
:100AB000EF93FF93F89480910001882309F402C119
:100AC0002C982091390120933801809179008093EE
:100AD0003901203808F0A1C0803808F49EC090E0A9
:100AE000821B910990933701809336014091340124
:100AF000509135019C01241B350B37FF03C0319504
:100B0000219531092F3F31050CF070C02091330140
:100B1000422F50E0440F551FFA01E15EFE4F9183D2
:100B2000808360911D0170911E01FA01E75FFE4F05
:100B30007183608310921E0110921D01211109C062
:100B40002C9A10920801809133018F5F80933301BA
:100B500064C04091090150910A01461B570B57FF91
:100B600003C0519541955109453051058CF540918F
:100B70001F0150912001481B590B57FF03C051958D
:100B8000419551094F3F51051CF5E9E0F1E040E086
:100B900050E030E0A191B1914A0F5B1F3F5F3213EB
:100BA000F9CF509307014093060150939D01409364
:100BB0009C0170930A016093090190932001809336
:100BC0001F0181E0809333012C9A1092080125C007
:100BD0002F5F209333012A3000F1109233011092DD
:100BE0000801109235011092340117C048175907B7
:100BF0006CF4909335018093340110921E01109291
:100C00001D01109208011092330107C08091080164
:100C10008F5F809308018A3000F78091390181113C
:100C200004C02D9A81E080934F0180911D01909125
:100C30001E01019690931E0180931D012091700169
:100C4000309171012F5F3F4F3093710120937001FC
:100C50004091790080E890E0BC01641B7109161690
:100C600017062CF440917900841B910905C08091EE
:100C7000790090E0805891094091720150E0481746
:100C800059079CF44091790080E890E0841B910919
:100C9000181619062CF49091790080E8891B03C07E
:100CA00080917900805880937201203B3D4151F43E
:100CB00010927101109270018091720180939E01D7
:100CC000109272017894FF91EF91BF91AF919F9133
:100CD0008F917F916F915F914F913F912F910F90E5
:100CE0000FBE0F901F901895CF93DF9300D000D0C8
:100CF00000D0CDB7DEB7789484B5826084BD84B56A
:100D0000816084BD85B5826085BD85B5816085BD06
:100D100080916E00816080936E00109281008091BE
:100D20008100826080938100809181008160809346
:100D30008100809180008160809380008091B1006B
:100D400084608093B1008091B00081608093B00096
:100D500080917A00846080937A0080917A0082602A
:100D600080937A0080917A00816080937A008091EC
:100D70007A00806880937A001092C10080E48093AA
:100D80007C0080917A00806480937A0080917A0060
:100D900086FDFCCF609178008091790070E0782B1F
:100DA000072E000C880B990B6115710581059105C3
:100DB00011F00E94650C0E94600C25E630E040E0D6
:100DC00050E00E946E0C9B01AC012C593F4F4F4FDD
:100DD0005F4F209350013093510140935201509343
:100DE0005301A8E5B2E00E948D0C60939F017093BF
:100DF000A0018093A1019093A2018DE00E94880040
:100E00008CE00E94880088E00E94880085E00E94B3
:100E1000880089E00E9488008AE00E94880086E0BD
:100E20000E94880083E00E9488000E94C40361E061
:100E300089E00E94D6020E94B103663971058105DE
:100E40009105C8F360E089E00E94D6020E94C403C5
:100E500061E08AE00E94D6020E94B1036639710502
:100E600081059105C8F360E08AE00E94D6020E94E5
:100E7000C40361E086E00E94D6020E94B103663995
:100E8000710581059105C8F360E086E00E94D602F5
:100E90000E94C40361E085E00E94D6020E94B10373
:100EA0006639710581059105C8F360E085E00E940F
:100EB000D60204E611E02AE631E03A83298365E3AD
:100EC000862E68E0962EA12CB12C22242394312C5E
:100ED0000E94600CA50194010E946E0C645D7E4F1F
:100EE0008F4F9F4F0E94ED0D6B017C010E94B50D4D
:100EF0002B013C01CB0164E170E00E940F0F892BB4
:100F000049F020E030E040E85FE3C701B6010E940D
:100F1000D20CEACFA981BA814D925D92BA83A9839E
:100F2000F801219231928F0180E090E0A0E8BFE3C8
:100F30008093600190936101A0936201B09363017B
:100F400020E030E046E953E4C701B6010E949D0E5F
:100F500087FD21C020E030E04AE754E4C701B60134
:100F60000E943E0D87FF17C020E030E040E85FE3BD
:100F700060915C0170915D0180915E0190915F01D3
:100F80000E94D20C60935C0170935D0180935E01BE
:100F900090935F0155C020E030E04AE754E4C70178
:100FA000B6010E949D0E87FD21C020E030E844ED8F
:100FB00054E4C701B6010E943E0D87FF17C020E030
:100FC00030E040E85FE360915801709159018091F1
:100FD0005A0190915B010E94D20C6093580170936A
:100FE000590180935A0190935B012AC020E030E8B8
:100FF00044ED54E4C701B6010E949D0E87FD20C058
:1010000020E030E146E155E4C701B6010E943E0D03
:1010100087FF16C020E030E040E85FE360915401B4
:101020007091550180915601909157010E94D20C08
:10103000609354017093550180935601909357012A
:1010400029813A812057314009F042CF0E94E003C4
:101050000E94C4030E94B103683B7B408105910557
:10106000C8F30E94D103F89410927A0010927B008A
:1010700080917C00806480937C0080917C00806201
:1010800080937C0080917A00856080937A008091C3
:101090007A00806280937A0080917A0088608093E1
:1010A0007A0080917A00806880937A0080917A003B
:1010B000806480937A00789480914F01882319F09E
:1010C0002D9810924F010E94D1030E94A5032091F8
:1010D0009F013091A0014091A1015091A2010E9475
:1010E000A00C6D3271408105910540F50E94600CA5
:1010F00023E030E040E050E00E946E0C660F771F66
:10110000FB01E659FE4F008111810E94E0030E941D
:10111000C4030E94B103683572408105910530F423
:10112000C8010E94A7000E94A503F3CF0E94D1032B
:1011300060EA7FE080E090E00E94690480919E0177
:10114000893208F4D8C2E4E7F1E0FC83EB836F0155
:1011500060919C0170919D0180E090E00E94EB0DF8
:101160009B01AC0160E07EE386E197E40E94430DC1
:10117000609398017093990180939A0190939B01D9
:10118000D6016D937D938D939D936D010E94800395
:101190002B013C014AE0842E912CA12CB12C0E9401
:1011A0008003DC01CB0184199509A609B709883EA3
:1011B0009340A105B10558F0B1E08B1A9108A10840
:1011C000B108E8EE4E0EE3E05E1E611C711C811456
:1011D0009104A104B10419F708E010E034E7232ECC
:1011E00031E0332EE12CF12CE016F1060CF5D101A3
:1011F0008D909D90AD90BD901D014D905D906D9036
:101200007C90A3019201C501B4010E949D0E1816A5
:101210005CF4F10134974082518262827382F10161
:1012200080829182A282B382FFEFEF1AFF0ADCCFA5
:101230000150110999F628E9C21621E0D20609F0F9
:1012400087CF109273011092000160E085E00E9448
:10125000D602609184017091850180918601909100
:1012600087010E94B50D6B017C01AB013B013CE2A3
:10127000631A31E0730A65E3661668E0760608F0E3
:1012800018C2EAE6F1E080E090E0019111919A0144
:10129000201B310B37FF03C03195219531092233D3
:1012A00031050CF094C0880F991FFC01EC59FE4FDA
:1012B0008081918101969183808320E030E040E835
:1012C0005FE3609160017091610180916201909192
:1012D00063010E94D20C609360017093610180935E
:1012E0006201909363017CEB671672E07706B8F4B5
:1012F00020E030E040E85FE360915C0170915D01C7
:1013000080915E0190915F010E94D20C60935C011C
:1013100070935D0180935E0190935F012FC0C601C1
:10132000885E934020E030E040E85FE38C3B9240F1
:1013300098F4609158017091590180915A019091EF
:101340005B010E94D20C6093580170935901809305
:101350005A0190935B0112C0609154017091550144
:1013600080915601909157010E94D20C60935401D4
:1013700070935501809356019093570181E08093BB
:1013800073010E94E00360919F017091A001809120
:10139000A1019091A2010E9469040E94D1030E94C0
:1013A000C4030E94B103683572408105910520F4A1
:1013B000C8010E94A700F5CF0E94E00360E177E238
:1013C00080E090E00E9469040E94D10305C001966C
:1013D0008330910509F059CF80917301811169C162
:1013E00080916401909165012091660130916701BF
:1013F0002817390734F4C901E1E0F0E0FE83ED83FA
:1014000002C01E821D822091680130916901281757
:10141000390724F422E030E03E832D830D811E81C4
:10142000000F111FA8014C595E4F5A834983DA01FE
:101430008D919C911C01B1E02B1A3108FA01318287
:10144000208220E030E040E85FE36091600170912D
:10145000610180916201909163010E94D10C4B0166
:101460005C016093600170936101809362019093CD
:101470006301FCEB6F16F2E07F06E0F420E030E061
:1014800040E85FE360915C0170915D0180915E01D5
:1014900090915F010E94D10C2B013C0160935C0193
:1014A00070935D0180935E0190935F01232809F49E
:1014B0002AC13DC0C601885E93408C3B9240E0F457
:1014C00020E030E040E85FE36091580170915901FD
:1014D00080915A0190915B010E94D10C2B013C013B
:1014E000609358017093590180935A0190935B0166
:1014F000232809F434C11BC020E030E040E85FE35A
:10150000609154017091550180915601909157015D
:101510000E94D10C2B013C01609354017093550142
:101520008093560190935701232809F444C122E087
:1015300030E0E4E6F1E0AAE6AA2EA1E0BA2E80E0CF
:1015400090E082179307F4F4D501ED90FD905D01D2
:101550004D915C9111974E155F058CF4C080D18040
:10156000BD0162507109DB014D935C93428153814F
:1015700051834083D501ED92FC92D382C2820196C1
:101580003296DFCF2130310519F021E030E0D1CFA4
:101590008091500190915101ED81FE81EF2B69F412
:1015A00000916C0110916D0120916A0130916B01E5
:1015B000A801421B530B9A010FC06D817E816230DE
:1015C000710591F400916C0110916D0120916E01F3
:1015D00030916F01201B310B829FB001839F700DF2
:1015E000929F700D112428C0F801E659FE4F4081EA
:1015F0005181ED81FE81EE0FFF1FE859FE4F008102
:1016000011819A01201B310B6D817E81660F771F3E
:1016100064597E4FDB01ED91FC91BF01641B750B9A
:10162000AB0126173707C4F2849FB001859F700D68
:10163000949F700D11248F016B01E12CF12C0E94FD
:10164000C4030E94B103683C710581059105C8F38C
:101650000E94C4030E94B1036C3271408105910560
:1016600028F461E083E00E94D602F4CF60E083E0DA
:101670000E94D6020E94E003C701B6010E946904DD
:101680000E94D1030E94C4030E94B10368357240D6
:101690008105910520F4C8010E94A700F5CF0E94A2
:1016A000E00360E177E280E090E00E9469040E943C
:1016B000D10361E085E00E94D6021092720110927F
:1016C0009E011092710110927001EB81FC811192C8
:1016D000119211921192FC83EB83E859F140A9F722
:1016E000109298011092990110929A0110929B0108
:1016F00081E08093000180E090E0892B09F4DCCC4C
:101700000E940000D9CCF801E659FE4FD182C08278
:1017100081E090E0A981BA818D939C9320E030E034
:1017200040E85FE3C501B4010E94D20C6093600100
:1017300070936101809362019093630120E030E037
:1017400040E85FE3C301B2010E94D20C60935C01E8
:1017500070935D0180935E0190935F01E8CEF80184
:10176000E659FE4FD182C08281E090E0E981FA81A2
:101770009183808320E030E040E85FE3C501B4015D
:101780000E94D20C609360017093610180936201AA
:101790009093630120E030E040E85FE3C301B201D1
:1017A0000E94D20C609358017093590180935A01A2
:1017B00090935B01BCCEF801E659FE4FD182C08206
:1017C00081E090E0A981BA818D939C9320E030E084
:1017D00040E85FE3C501B4010E94D20C6093600150
:1017E00070936101809362019093630120E030E087
:1017F00040E85FE3C301B2010E94D20C6093540140
:1018000070935501809356019093570190CE0E949A
:10181000A5036093B8017093B9018093BA019093C6
:10182000BB0108958F929F92AF92BF92CF92DF92A9
:10183000EF92FF92CF93DF93EC01688179818A81E7
:101840009B81611571058105910521F464E279EDB3
:101850008BE597E02DE133EF41E050E00E946E0C04
:1018600049015A019B01AC01A7EAB1E40E948D0C29
:101870006B017C01ACEEB4EFA50194010E949B0CBE
:10188000DC01CB018C0D9D1DAE1DBF1DB7FF03C03C
:101890000197A109B04888839983AA83BB83BC01BF
:1018A000CD019F77DF91CF91FF90EF90DF90CF90A8
:1018B000BF90AF909F908F9008950E94120C089552
:1018C00082E091E00E94120C0895609302017093EF
:1018D000030180930401909305010895052E97FB61
:1018E0001EF400940E94850C57FD07D00E94A00CA6
:1018F00007FC03D04EF40C94850C50954095309520
:1019000021953F4F4F4F5F4F08959095809570956B
:1019100061957F4F8F4F9F4F08950E94C20CA59FE6
:10192000900DB49F900DA49F800D911D11240895DA
:10193000B7FF0C948D0C0E948D0C821B930B0895A5
:10194000A1E21A2EAA1BBB1BFD010DC0AA1FBB1FC3
:10195000EE1FFF1FA217B307E407F50720F0A21B35
:10196000B30BE40BF50B661F771F881F991F1A94A2
:1019700069F760957095809590959B01AC01BD01CC
:10198000CF010895A29FB001B39FC001A39F700D26
:10199000811D1124911DB29F700D811D1124911D77
:1019A00008955058BB27AA270E94E90C0C94630E97
:1019B0000E94550E38F00E945C0E20F039F49F3FD3
:1019C00019F426F40C94520E0EF4E095E7FB0C94F7
:1019D0004C0EE92F0E94740E58F3BA176207730772
:1019E0008407950720F079F4A6F50C94960E0EF472
:1019F000E0950B2EBA2FA02D0B01B90190010C011F
:101A0000CA01A0011124FF27591B99F0593F50F436
:101A1000503E68F11A16F040A22F232F342F44278E
:101A2000585FF3CF469537952795A795F040539586
:101A3000C9F77EF41F16BA0B620B730B840BBAF056
:101A40009150A1F0FF0FBB1F661F771F881FC2F7C1
:101A50000EC0BA0F621F731F841F48F487957795D5
:101A60006795B795F7959E3F08F0B0CF9395880F8F
:101A700008F09927EE0F9795879508950E94280EF4
:101A800008F481E008950E94570D0C94630E0E94A3
:101A90005C0E58F00E94550E40F029F45F3F29F08B
:101AA0000C944C0E51110C94970E0C94520E0E94F3
:101AB000740E68F39923B1F3552391F3951B550BDD
:101AC000BB27AA2762177307840738F09F5F5F4F11
:101AD000220F331F441FAA1FA9F335D00E2E3AF050
:101AE000E0E832D091505040E695001CCAF72BD068
:101AF000FE2F29D0660F771F881FBB1F26173707B9
:101B00004807AB07B0E809F0BB0B802DBF01FF27EA
:101B100093585F4F3AF09E3F510578F00C944C0E6D
:101B20000C94970E5F3FE4F3983ED4F38695779537
:101B30006795B795F7959F5FC9F7880F911D9695A3
:101B4000879597F90895E1E0660F771F881FBB1FFF
:101B5000621773078407BA0720F0621B730B840BAC
:101B6000BA0BEE1F88F7E09508950E94BC0D6894AB
:101B7000B1110C94970E08950E947C0E88F09F5727
:101B800098F0B92F9927B751B0F0E1F0660F771FA1
:101B9000881F991F1AF0BA95C9F714C0B13091F097
:101BA0000E94960EB1E008950C94960E672F782F40
:101BB0008827B85F39F0B93FCCF38695779567955C
:101BC000B395D9F73EF490958095709561957F4FC8
:101BD0008F4F9F4F0895E89409C097FB3EF490956E
:101BE0008095709561957F4F8F4F9F4F9923A9F0F6
:101BF000F92F96E9BB279395F69587957795679585
:101C0000B795F111F8CFFAF4BB0F11F460FF1BC0C8
:101C10006F5F7F4F8F4F9F4F16C0882311F096E95B
:101C200011C0772321F09EE8872F762F05C0662309
:101C300071F096E8862F70E060E02AF09A95660FC2
:101C4000771F881FDAF7880F9695879597F908957B
:101C5000990F0008550FAA0BE0E8FEEF16161706BD
:101C6000E807F907C0F012161306E407F50798F025
:101C7000621B730B840B950B39F40A2661F0232B3E
:101C8000242B252B21F408950A2609F4A140A695BA
:101C90008FEF811D811D089597F99F6780E870E09F
:101CA00060E008959FEF80EC089500240A941616D2
:101CB000170618060906089500240A94121613063A
:101CC000140605060895092E0394000C11F48823C8
:101CD00052F0BB0F40F4BF2B11F460FF04C06F5FE4
:101CE0007F4F8F4F9F4F089557FD9058440F551FBA
:101CF00059F05F3F71F04795880F97FB991F61F08E
:101D00009F3F79F087950895121613061406551F04
:101D1000F2CF4695F1DF08C0161617061806991F70
:101D2000F1CF86957105610508940895E894BB2765
:101D300066277727CB0197F908950E94280E08F4AB
:101D40008FEF08950E94B50E0C94630E0E94550EFD
:101D500038F00E945C0E20F0952311F00C944C0E8C
:101D60000C94520E11240C94970E0E94740E70F372
:101D7000959FC1F3950F50E0551F629FF001729F30
:101D8000BB27F00DB11D639FAA27F00DB11DAA1F3F
:101D9000649F6627B00DA11D661F829F2227B00D8C
:101DA000A11D621F739FB00DA11D621F839FA00D17
:101DB000611D221F749F3327A00D611D231F849F67
:101DC000600D211D822F762F6A2F11249F575040BE
:101DD0009AF0F1F088234AF0EE0FFF1FBB1F661F39
:101DE000771F881F91505040A9F79E3F510580F002
:101DF0000C944C0E0C94970E5F3FE4F3983ED4F392
:101E0000869577956795B795F795E7959F5FC1F7A5
:101E1000FE2B880F911D9695879597F9089597FB4E
:101E2000072E16F4009407D077FD09D00E94230FE7
:101E300007FC05D03EF4909581959F4F08957095CD
:101E400061957F4F0895AA1BBB1B51E107C0AA1FD4
:101E5000BB1FA617B70710F0A61BB70B881F991F4B
:101E60005A95A9F780959095BC01CD010895EE0F84
:0E1E7000FF1F0590F491E02D0994F894FFCF28
:061E7E0001FF010000005D
:00000001FF
