:100000000C945E000C9486000C9486000C94860080
:100010000C9486000C9486000C9486000C94650267
:100020000C9486000C9486000C9486000C94860038
:100030000C9486000C9486000C9486000C94860028
:100040000C947A030C9486000C9448030C942203BD
:100050000C9486000C94C4030C9486000C948600C7
:100060000C9486000C948600000000080002010039
:100070000003040700000000000000000200000070
:1000800000250028002B0000000000240027002A83
:100090000004040404040404040202020202020331
:1000A000030303030301020408102040800102043B
:1000B000081020010204081020001D0911241FBE91
:1000C000CFEFD8E0DEBFCDBF11E0A0E0B1E0E6ECBD
:1000D000F7E102C005900D92AC32B107D9F722E0EA
:1000E000ACE2B1E001C01D92AA34B207E1F710E022
:1000F000CEE5D0E004C02197FE010E94D60BCD359D
:10010000D107C9F70E94ED040C94E10B0C94000098
:1001100090E0FC01EB55FF4F2491FC01EF56FF4F9F
:100120008491882399F090E0880F991FFC01E9578A
:10013000FF4FA591B491FC01E358FF4F8591949135
:100140008FB7F894EC91E22BEC938FBF0895CF9288
:10015000DF92EF92FF920F931F93CF93DF936C0187
:100160007A018B01C0E0D0E0CE15DF0589F0D8011F
:100170006D918D01D601ED91FC910190F081E02D02
:10018000C6010995892B11F47E0102C02196ECCF9E
:10019000C701DF91CF911F910F91FF90EF90DF90FA
:1001A000CF900895089580E090E00895FC01538D6C
:1001B000448D252F30E0842F90E0821B930B541741
:1001C00010F0CF96089501970895FC01918D828DCE
:1001D000981761F0828DDF01A80FB11D5D968C919B
:1001E000928D9F5F9F73928F90E008958FEF9FEFA6
:1001F0000895FC01918D828D981731F0828DE80F62
:10020000F11D858D90E008958FEF9FEF0895FC011B
:10021000918D228D892F90E0805C9F4F821B9109E8
:100220008F73992708958DEA91E00E94070121E0DC
:10023000892B09F420E0822F0895FC01848DDF01D1
:10024000A80FB11DA35ABF4F2C91848D90E0019649
:100250008F739927848FA689B7892C93A089B18938
:100260008C9180648C93938D848D981306C0028842
:10027000F389E02D80818F7D80830895EF92FF9236
:100280000F931F93CF93DF93EC0181E0888F9B8DB9
:100290008C8D981305C0E889F989808185FD24C07B
:1002A000F62E0B8D10E00F5F1F4F0F731127E02EFE
:1002B0008C8DE8120CC00FB607FCFACFE889F989DB
:1002C000808185FFF5CFCE010E941D01F1CF8B8D7E
:1002D000FE01E80FF11DE35AFF4FF0820B8FEA8910
:1002E000FB898081806207C0EE89FF896083E8898D
:1002F000F98980818064808381E090E0DF91CF91F3
:100300001F910F91FF90EF900895CF93DF93EC0131
:10031000888D8823C9F0EA89FB89808185FD05C025
:10032000A889B9898C9186FD0FC00FB607FCF5CF5F
:10033000808185FFF2CFA889B9898C9185FFEDCFA7
:10034000CE010E941D01E7CFDF91CF91089580E09B
:1003500090E0892B29F00E94130181110C94000078
:1003600008953FB7F8948091680190916901A09138
:100370006A01B0916B0126B5A89B05C02F3F19F00B
:100380000196A11DB11D3FBFBA2FA92F982F882715
:10039000820F911DA11DB11DBC01CD0142E0660F70
:1003A000771F881F991F4A95D1F708958F929F92C2
:1003B000AF92BF92CF92DF92EF92FF926B017C01DE
:1003C0000E94B1014B015C01C114D104E104F104AC
:1003D000F1F00E94B101DC01CB0188199909AA0949
:1003E000BB09883E9340A105B10570F321E0C21A14
:1003F000D108E108F10888EE880E83E0981EA11C60
:10040000B11CC114D104E104F10419F7DDCFFF9050
:10041000EF90DF90CF90BF90AF909F908F90089516
:10042000009769F0FC0101900020E9F73197AF01D6
:10043000481B590BBC018DEA91E00C94A70080E0A9
:1004400090E008958F929F92AF92BF920F931F9367
:10045000CF93DF93CDB7DEB7A1970FB6F894DEBF89
:100460000FBECDBF19A2423008F44AE08E010F5DE5
:100470001F4F842E912CA12CB12CA50194010E9418
:10048000860BE62FB901CA0101501109EA3014F4B4
:10049000E05D01C0E95CD801EC93232B242B252BD4
:1004A00061F7C8010E941002A1960FB6F894DEBF52
:1004B0000FBECDBFDF91CF911F910F91BF90AF9035
:1004C0009F908F9008950E94DC0B1F920F920FB6A1
:1004D0000F9211242F933F938F939F93AF93BF93CA
:1004E000EF93FF938091760190917701A09178012D
:1004F000B0917901892B8A2B8B2B59F180916D0159
:10050000E0916E01F0916F01908189278083809145
:10051000760190917701A0917801B0917901181638
:1005200019061A061B060CF080C080917601909186
:100530007701A0917801B09179010197A109B109E2
:100540008093760190937701A0937801B09379011D
:100550006CC080910001ECE7F0E0E4919FEF909394
:100560000001E130B9F098F0E230C9F490917000E8
:100570009D7F9093700091E09093B0009091B100B6
:10058000987F94609093B1001092B30008C01092CD
:100590006E0005C090916F009D7F90936F0090E07A
:1005A000FC01E859FF4F2491FC01EB55FF4F3491BA
:1005B000FC01EF56FF4FE491EE23B9F1222339F10C
:1005C000233091F038F42130A9F0223001F584B5C0
:1005D0008F7D12C0273091F02830A1F02430B9F47B
:1005E000809180008F7D03C0809180008F77809301
:1005F00080000DC084B58F7784BD09C08091B000A4
:100600008F7703C08091B0008F7D8093B000F0E0C1
:10061000EE0FFF1FE358FF4FA591B4918FB7F894E9
:10062000EC9130953E233C938FBFFF91EF91BF91AA
:10063000AF919F918F913F912F910F900FBE0F908F
:100640001F9018951F920F920FB60F9211242F939F
:100650003F934F935F936F937F938F939F93AF934A
:10066000BF93EF93FF938DEA91E00E941D01FF91EC
:10067000EF91BF91AF919F918F917F916F915F911A
:100680004F913F912F910F900FBE0F901F90189593
:100690001F920F920FB60F9211242F938F939F9357
:1006A000EF93FF93E091BD01F091BE018081E09155
:1006B000C301F091C40182FD12C090818091C601F6
:1006C0008F5F8F732091C701821751F0E091C601AF
:1006D000F0E0E355FE4F958F8093C60101C0808105
:1006E000FF91EF919F918F912F910F900FBE0F90DF
:1006F0001F9018951F920F920FB60F9211242F93EF
:100700003F938F939F93AF93BF9380916401909198
:100710006501A0916601B09167013091630123E00A
:10072000230F2D3720F40196A11DB11D05C026E829
:10073000230F0296A11DB11D2093630180936401D4
:1007400090936501A0936601B09367018091680161
:1007500090916901A0916A01B0916B010196A11D70
:10076000B11D8093680190936901A0936A01B093D1
:100770006B01BF91AF919F918F913F912F910F90FE
:100780000FBE0F901F9018951F920F920FB60F92E9
:1007900011242F933F934F935F936F937F938F9386
:1007A0009F93AF93BF93EF93FF93809101018823B1
:1007B00009F402C12C98209162012093610180917B
:1007C0007900809362012F3908F0A1C08F3908F4B5
:1007D0009EC090E0821B91099093600180935F011D
:1007E00040915D0150915E019C01241B350B37FF48
:1007F00003C03195219531092F3F31050CF070C0B0
:1008000020915C01422F50E0440F551FFA01E85B34
:10081000FE4F918380836091460170914701FA01F8
:10082000EE5CFE4F71836083109247011092460187
:10083000211109C02C9A1092310180915C018F5FC7
:1008400080935C0164C04091320150913301461B9A
:10085000570B57FF03C05195419551094A30510537
:100860008CF54091480150914901481B590B57FFA5
:1008700003C05195419551094F3F51051CF5E2E3E5
:10088000F1E040E050E030E0A191B1914A0F5B1FF0
:100890003F5F3213F9CF5093300140932F015093B3
:1008A000AB014093AA01709333016093320190939E
:1008B00049018093480181E080935C012C9A109259
:1008C000310125C02F5F20935C012A3000F1109286
:1008D0005C011092310110925E0110925D0117C00F
:1008E000481759076CF490935E0180935D01109254
:1008F0004701109246011092310110925C0107C02D
:10090000809131018F5F809331018A3000F78091AF
:100910006201811104C02D9A81E080936C01809165
:1009200046019091470101969093470180934601BB
:1009300020912D0130912E012F5F3F4F30932E01DA
:1009400020932D01409179008FE990E0BC01641B58
:100950007109161617062CF440917900841B910931
:1009600005C08091790090E08F59910940912C0148
:1009700050E0481759079CF4409179008FE990E0C6
:10098000841B9109181619062CF4909179008FE9AF
:10099000891B03C0809179008F5980932C01283ED8
:1009A000334051F410922E0110922D0180912C01B0
:1009B0008093AC0110922C01FF91EF91BF91AF9108
:1009C0009F918F917F916F915F914F913F912F9167
:1009D0000F900FBE0F901F901895CF93DF9300D00C
:1009E00000D0CDB7DEB7789484B5826084BD84B57D
:1009F000816084BD85B5826085BD85B5816085BD1A
:100A000080916E00816080936E00109281008091D1
:100A10008100826080938100809181008160809359
:100A20008100809180008160809380008091B1007E
:100A300084608093B1008091B00081608093B000A9
:100A400080917A00846080937A0080917A0082603D
:100A500080937A0080917A00816080937A008091FF
:100A60007A00806880937A001092C100E091BD0105
:100A7000F091BE0182E08083E091B901F091BA016A
:100A80001082E091BB01F091BC018FEC8083109249
:100A9000C501E091C101F091C20186E08083E0913F
:100AA000BF01F091C001808180618083E091BF012E
:100AB000F091C001808188608083E091BF01F09156
:100AC000C001808180688083E091BF01F091C00106
:100AD00080818F7D80838DE00E9488008CE00E9461
:100AE0008800F89410927A0010927B0080917C002C
:100AF000806480937C0080917C00806280937C0085
:100B000080917A00856080937A0080917A0080627B
:100B100080937A0080917A00886080937A00809137
:100B20007A00806880937A0080917A008064809354
:100B30007A00789480916C01882319F02D98109296
:100B40006C018091AC01893208F417C192E8C92E7A
:100B500091E0D92E6091AA017091AB0180E090E004
:100B60000E945D0A9B01AC0160E07EE386E197E4B0
:100B70000E94BC096093A6017093A7018093A8010D
:100B80009093A901F60161937193819391936F0101
:100B90006AE070E080E090E00E94D60108E010E09A
:100BA00082E8282E81E0382EE12CF12CE016F106A7
:100BB0000CF5F10181909190A190B1901F014080BE
:100BC000518062807380A3019201C501B4010E942B
:100BD0000F0B18165CF4F101349740825182628247
:100BE0007382F10180829182A282B382FFEFEF1AB9
:100BF000FF0ADCCF0150110999F626EAC21621E05E
:100C0000D20609F0A7CF84E191E00E941002C090C3
:100C10009201D0909301E0909401F0909501A7018A
:100C20009601C701B6010E94810B882319F08DE15E
:100C300091E01AC046015701E894B7F82FEF3FEF53
:100C40004FE75FE7C501B4010E94810B81110FC01E
:100C50002FEF3FEF4FE75FE7C501B4010E94B709EF
:100C600018162CF481E291E00E94100282C02FEF4E
:100C70003FEF4FE75FE4C701B6010E940F0B181664
:100C80001CF485E291E0F0CF2FEF3FEF4FE75FECF0
:100C9000C701B6010E94B70987FDF3CF20E030E01D
:100CA000A901C701B6010E94B70987FF0FC0E091F3
:100CB000AD01F091AE010190F081E02D6DE28DEA81
:100CC00091E00995F7FAF094F7F8F0942AE037EDFF
:100CD00043EA5BE3C701B6010E944B094B015C018B
:100CE0000E942E0A6B017C010E945D0A9B01AC01EF
:100CF000C501B4010E944A094B015C014AE0C701E9
:100D0000B6010E942202E091AD01F091AE01019086
:100D1000F081E02D6EE28DEA91E0099520E030E06F
:100D200040E251E4C501B4010E94140B6B017C0147
:100D30000E942E0A4B01A12CB12C4AE0C501B4013E
:100D40000E942202C501B4010E945D0A9B01AC0110
:100D5000C701B6010E944A0920E030E040E251E4B8
:100D60000E94140B0E942E0A80E090E04AE00E944C
:100D7000220289E291E00E94100268EE73E080E0B6
:100D800090E00E94D60120E030E048EC52E460910F
:100D900092017091930180919401909195010E942C
:100DA0000F0B87FDCAC11092010164E670E080E07C
:100DB00090E00E94D6016091920170919301809120
:100DC00094019091950120910001273021F4ECE7E6
:100DD000F0E0149175C02F3F09F0AFC127E02093D8
:100DE0000001ECE7F0E014911F3F09F4A6C11130B7
:100DF00009F1123009F441C0111162C014BC15BCD4
:100E000024B5226024BD25B5216025BDE8E9F0E0C8
:100E1000E491F0E0EE0FFF1FE358FF4F259134916E
:100E20003093750120937401ECEAF0E0E491E093D3
:100E3000730148C0109280001092810020918100BF
:100E400028602093810020918100216020938100FF
:100E5000E8E9F0E0E491F0E0EE0FFF1FE358FF4F08
:100E6000259134913093720120937101ECEAF0E006
:100E7000E491E093700111E025C01092B00010924F
:100E8000B1002091B00022602093B0002091B10009
:100E900021602093B100E8E9F0E0E491F0E0EE0F8A
:100EA000FF1FE358FF4F2591349130936F0120933A
:100EB0006E01ECEAF0E0E491E0936D0112E002C013
:100EC00017FD3BC10E942E0A69837A838B839C8322
:100ED00087E00E94880089819A814C01A12CB12C65
:100EE000812F8D7F09F0B6C060E072E18AE790E063
:100EF000A50194010E94A80B29013A0169017A0118
:100F000091E0C91AD108E108F108EFEFCE16D1043B
:100F1000E104F10409F008F44BC060E472E48FE0EE
:100F200090E0A50194010E94A80B69017A01F1E00B
:100F3000CF1AD108E108F108123001F52FEFC216DF
:100F4000D104E104F10409F008F475C160E970ED21
:100F500083E090E0A50194010E94A80B69017A0149
:100F600081E0C81AD108E108F1089FEFC916D10441
:100F7000E104F10409F0C0F583E065C0EFEFCE169F
:100F8000D104E104F104B1F0A8F068E478EE81E066
:100F900090E0A50194010E94A80B69017A01F1E09B
:100FA000CF1AD108E108F108112309F422C118C1B0
:100FB00081E001C082E0111146C011C0D301C2011D
:100FC0002AE0B595A795979587952A95D1F76C0155
:100FD0007D0121E0C21AD108E108F10885E095B54C
:100FE000987F892B85BD65C068E478EE81E090E04C
:100FF000A50194010E94A80B69017A0191E0C91A28
:10100000D108E108F108EFEFCE16D104E104F104B4
:1010100009F008F4B6C064E274EF80E090E0A50146
:1010200094010E94A80B69017A0181E0C81AD108D5
:10103000E108F1089FEFC916D104E104F10411F0B1
:1010400008F0A1C085E09091B100987F892B809332
:10105000B1002FC060E072E18AE790E0A501940141
:101060000E94A80B69017A01F1E0CF1AD108E108CA
:10107000F108C114D10421E0E206F10488F068E42B
:1010800078EE81E090E0A50194010E94A80B69012F
:101090007A0181E0C81AD108E108F10893E001C0A3
:1010A00091E0113031F480918100887F892B809309
:1010B000810029813A81220F331FA4EFB1E00E9401
:1010C000C70B28EE33E040E050E00E94860B113061
:1010D00099F0123019F1111130C0C7BC20937E0174
:1010E00030937F01409380015093810180916E0085
:1010F000826080936E0021C0D0928900C0928800E7
:1011000020937A0130937B0140937C0150937D01C1
:1011100080916F00826080936F000FC0C092B30017
:1011200020937601309377014093780150937901B1
:101130008091700082608093700080E090E020E0F9
:1011400030E0893091055CF4F901EE57FE4F1082D2
:1011500011821282138201962C5F3F4FF2CF68EE0C
:1011600073E080E090E00E94D60181E0809301016D
:1011700064E670E080E090E00E94D6010E94A70142
:10118000D9CC84E060CF62E17AE780E090E0A5010D
:1011900094010E94A80B69017A01F1E0CF1AD108ED
:1011A000E108F1082FEFC216D104E104F104B1F017
:1011B000A8F0D301C2015AE0B595A79597958795F8
:1011C0005A95D1F76C017D01E1E0CE1AD108E10812
:1011D000F108112309F402CF87E035CF86E0EBCE8A
:1011E0008FEFC816D104E104F10409F060F684E041
:1011F000E2CEFFEFCF16D104E104F104D1F0C8F044
:1012000062E17AE780E090E0A50194010E94A80BDA
:1012100069017A0191E0C91AD108E108F108EFEFFC
:10122000CE16D104E104F10411F008F0C7CE84E039
:10123000D6CE83E0D4CE82E006CFEDEAF1E0138291
:10124000128288EE93E0A0E0B0E084839583A683C9
:10125000B78386E091E09183808385EC90E0958769
:10126000848784EC90E09787868780EC90E0918B70
:10127000808B81EC90E0938B828B82EC90E0958B5D
:10128000848B86EC90E0978B868B118E128E138E5A
:10129000148E08955058BB27AA270E9462090C9407
:1012A000D50A0E94C70A38F00E94CE0A20F039F40D
:1012B0009F3F19F426F40C94C40A0EF4E095E7FB62
:1012C0000C94BE0AE92F0E94E60A58F3BA17620787
:1012D00073078407950720F079F4A6F50C94080BA2
:1012E0000EF4E0950B2EBA2FA02D0B01B901900141
:1012F0000C01CA01A0011124FF27591B99F0593F85
:1013000050F4503E68F11A16F040A22F232F342FCC
:101310004427585FF3CF469537952795A795F0401A
:101320005395C9F77EF41F16BA0B620B730B840B2F
:10133000BAF09150A1F0FF0FBB1F661F771F881FE7
:10134000C2F70EC0BA0F621F731F841F48F487953F
:1013500077956795B795F7959E3F08F0B0CF939531
:10136000880F08F09927EE0F9795879508950E94AA
:101370009A0A08F481E008950E94D0090C94D50AD5
:101380000E94CE0A58F00E94C70A40F029F45F3F3D
:1013900029F00C94BE0A51110C94090B0C94C40A48
:1013A0000E94E60A68F39923B1F3552391F3951B44
:1013B000550BBB27AA2762177307840738F09F5F76
:1013C0005F4F220F331F441FAA1FA9F335D00E2EE3
:1013D0003AF0E0E832D091505040E695001CCAF750
:1013E0002BD0FE2F29D0660F771F881FBB1F261713
:1013F00037074807AB07B0E809F0BB0B802DBF01EA
:10140000FF2793585F4F3AF09E3F510578F00C94B8
:10141000BE0A0C94090B5F3FE4F3983ED4F3869523
:1014200077956795B795F7959F5FC9F7880F911DD9
:101430009695879597F90895E1E0660F771F881FC5
:10144000BB1F621773078407BA0720F0621B730B78
:10145000840BBA0BEE1F88F7E09508950E94EE0A00
:1014600088F09F5798F0B92F9927B751B0F0E1F065
:10147000660F771F881F991F1AF0BA95C9F714C015
:10148000B13091F00E94080BB1E008950C94080B64
:10149000672F782F8827B85F39F0B93FCCF386954E
:1014A00077956795B395D9F73EF4909580957095AB
:1014B00061957F4F8F4F9F4F0895E89409C097FB28
:1014C0003EF490958095709561957F4F8F4F9F4F1B
:1014D0009923A9F0F92F96E9BB279395F69587955F
:1014E00077956795B795F111F8CFFAF4BB0F11F422
:1014F00060FF1BC06F5F7F4F8F4F9F4F16C08823C9
:1015000011F096E911C0772321F09EE8872F762FFE
:1015100005C0662371F096E8862F70E060E02AF03F
:101520009A95660F771F881FDAF7880F969587952B
:1015300097F90895990F0008550FAA0BE0E8FEEF00
:1015400016161706E807F907C0F012161306E40787
:10155000F50798F0621B730B840B950B39F40A2680
:1015600061F0232B242B252B21F408950A2609F45E
:10157000A140A6958FEF811D811D089597F99F6762
:1015800080E870E060E008959FEF80EC089500240B
:101590000A941616170618060906089500240A94D8
:1015A00012161306140605060895092E0394000C5E
:1015B00011F4882352F0BB0F40F4BF2B11F460FFED
:1015C00004C06F5F7F4F8F4F9F4F089557FD905816
:1015D000440F551F59F05F3F71F04795880F97FBF7
:1015E000991F61F09F3F79F08795089512161306B1
:1015F0001406551FF2CF4695F1DF08C016161706E0
:101600001806991FF1CF8695710561050894089514
:10161000E894BB2766277727CB0197F908950E94A6
:101620009A0A08F48FEF08950E94270B0C94D50AAC
:101630000E94C70A38F00E94CE0A20F0952311F0CC
:101640000C94BE0A0C94C40A11240C94090B0E9439
:10165000E60A70F3959FC1F3950F50E0551F629F06
:10166000F001729FBB27F00DB11D639FAA27F00DFB
:10167000B11DAA1F649F6627B00DA11D661F829F22
:101680002227B00DA11D621F739FB00DA11D621F07
:10169000839FA00D611D221F749F3327A00D611D24
:1016A000231F849F600D211D822F762F6A2F112406
:1016B0009F5750409AF0F1F088234AF0EE0FFF1F39
:1016C000BB1F661F771F881F91505040A9F79E3F90
:1016D000510580F00C94BE0A0C94090B5F3FE4F3B3
:1016E000983ED4F3869577956795B795F795E795E6
:1016F0009F5FC1F7FE2B880F911D9695879597F9EF
:1017000008950E949A0A880B990B0895A1E21A2E57
:10171000AA1BBB1BFD010DC0AA1FBB1FEE1FFF1F95
:10172000A217B307E407F50720F0A21BB30BE40BE5
:10173000F50B661F771F881F991F1A9469F760952C
:101740007095809590959B01AC01BD01CF010895E6
:10175000052E97FB1EF400940E94BF0B57FD07D087
:101760000E94860B07FC03D04EF40C94BF0B5095DF
:101770004095309521953F4F4F4F5F4F089590957D
:101780008095709561957F4F8F4F9F4F0895A29FD1
:10179000B001B39FC001A39F700D811D1124911D45
:1017A000B29F700D811D1124911D0895EE0FFF1F32
:1017B0000590F491E02D099481E090E0F8940C9468
:0617C000E10BF894FFCFDD
:1017C600FF01000000003E01A700D60085010701C9
:1017D600E500F9006D656469616E3A20006E616E20
:0C17E60000696E66006F7666000D0A0058
:00000001FF
