:100000000C945E000C9486000C9486000C94860080
:100010000C9486000C9486000C9486000C945C0270
:100020000C9486000C9486000C9486000C94860038
:100030000C9486000C9486000C9486000C94860028
:100040000C9436030C9486000C9404030C94DE028A
:100050000C9486000C9486000C9486000C94860008
:100060000C9486000C948600000000080002010039
:100070000003040700000000000000000200000070
:1000800000250028002B0000000000240027002A83
:100090000004040404040404040202020202020331
:1000A000030303030301020408102040800102043B
:1000B00008102001020408102000130511241FBE9F
:1000C000CFEFD8E0DEBFCDBF11E0A0E0B1E0EAE9BC
:1000D000FAE002C005900D92A232B107D9F721E0F3
:1000E000A2E2B1E001C01D92AF3DB207E1F710E01E
:1000F000CEE5D0E004C02197FE010E944005CD3539
:10010000D107C9F70E9480030C944B050C940000A2
:1001100090E0FC01EB55FF4F2491FC01EF56FF4F9F
:100120008491882399F090E0880F991FFC01E9578A
:10013000FF4FA591B491FC01E358FF4F8591949135
:100140008FB7F894EC91E22BEC938FBF0895FC01EC
:10015000538D448D252F30E0842F90E0821B930B2C
:10016000541710F0CF96089501970895FC01918DD2
:10017000828D981761F0828DDF01A80FB11D5D9609
:100180008C91928D9F5F9F73928F90E008958FEF77
:100190009FEF0895FC01918D828D981731F0828D2B
:1001A000E80FF11D858D90E008958FEF9FEF089582
:1001B000FC01918D228D892F90E0805C9F4F821BE6
:1001C00091098F7399270895FC01848DDF01A80F91
:1001D000B11DA35ABF4F2C91848D90E001968F736F
:1001E0009927848FA689B7892C93A089B1898C918E
:1001F00080648C93938D848D981306C00288F38954
:10020000E02D80818F7D80830895EF92FF920F9380
:100210001F93CF93DF93EC0181E0888F9B8D8C8DB2
:10022000981305C0E889F989808185FD24C0F62EE0
:100230000B8D10E00F5F1F4F0F731127E02E8C8D79
:10024000E8120CC00FB607FCFACFE889F989808163
:1002500085FFF5CFCE010E94E400F1CF8B8DFE012A
:10026000E80FF11DE35AFF4FF0820B8FEA89FB89FB
:100270008081806207C0EE89FF896083E889F989FF
:1002800080818064808381E090E0DF91CF911F9135
:100290000F91FF90EF900895CF93DF93EC01888D3D
:1002A0008823C9F0EA89FB89808185FD05C0A8897A
:1002B000B9898C9186FD0FC00FB607FCF5CF808100
:1002C00085FFF2CFA889B9898C9185FFEDCFCE014A
:1002D0000E94E400E7CFDF91CF91089580E491E0A0
:1002E0000E94D80021E0892B09F420E0822F089594
:1002F00080E090E0892B29F00E946E0181110C941E
:1003000000000895CF92DF92EF92FF920F931F9318
:10031000CF93DF936C017A018B01C0E0D0E0CE1562
:10032000DF0589F0D8016D918D01D601ED91FC9129
:100330000190F081E02DC6010995892B11F47E0111
:1003400002C02196ECCFC701DF91CF911F910F9191
:10035000FF90EF90DF90CF900895089580E090E0B7
:10036000089590E0FC01E859FF4F3491FC01EB55F2
:10037000FF4F2491FC01EF56FF4FE491EE2309F467
:100380003BC0332339F1333091F038F43130A9F0E8
:10039000323001F584B58F7D12C0373091F038309E
:1003A000A1F03430B9F4809180008F7D03C080913A
:1003B00080008F77809380000DC084B58F7784BDD7
:1003C00009C08091B0008F7703C08091B0008F7D0D
:1003D0008093B000F0E0EE0FFF1FE358FF4FA591B0
:1003E000B4918FB7F894EC91611103C020952E233E
:1003F00001C02E2B2C938FBF08953FB7F8948091A6
:10040000270190912801A0912901B0912A0126B5D8
:10041000A89B05C02F3F19F00196A11DB11D3FBF3C
:10042000BA2FA92F982F8827820F911DA11DB11DCA
:10043000BC01CD0142E0660F771F881F991F4A95C6
:10044000D1F708958F929F92AF92BF92CF92DF9291
:10045000EF92FF920E94FD014B015C0188EEC82ED5
:1004600083E0D82EE12CF12C0E94FD01DC01CB01B0
:1004700088199909AA09BB09883E9340A105B105CD
:1004800058F021E0C21AD108E108F10888EE880E80
:1004900083E0981EA11CB11CC114D104E104F10435
:1004A00019F7FF90EF90DF90CF90BF90AF909F90A3
:1004B0008F9008950E9446051F920F920FB60F92DB
:1004C00011242F933F934F935F936F937F938F9359
:1004D0009F93AF93BF93EF93FF93809134019091DB
:1004E0003501A0913601B0913701892B8A2B8B2BD6
:1004F00059F180912B01E0912C01F0912D01908117
:10050000892780838091340190913501A091360133
:10051000B0913701181619061A061B060CF03DC0DB
:100520008091340190913501A0913601B09137014D
:100530000197A109B1098093340190933501A093EB
:100540003601B093370129C080910001ECE7F0E05B
:10055000E4919FEF90930001E130B9F098F0E23020
:10056000C9F4909170009D7F9093700091E09093FA
:10057000B0009091B100987F94609093B100109278
:10058000B30008C010926E0005C090916F009D7F6F
:1005900090936F0060E00E94B101FF91EF91BF91D5
:1005A000AF919F918F917F916F915F914F913F910B
:1005B0002F910F900FBE0F901F9018951F920F92C2
:1005C0000FB60F9211242F933F934F935F936F9326
:1005D0007F938F939F93AF93BF93EF93FF9380E4A9
:1005E00091E00E94E400FF91EF91BF91AF919F9144
:1005F0008F917F916F915F914F913F912F910F90CC
:100600000FBE0F901F9018951F920F920FB60F926A
:1006100011242F938F939F93EF93FF93E0915001B9
:10062000F09151018081E0915601F091570182FDD6
:1006300012C09081809159018F5F8F7320915A0170
:10064000821751F0E0915901F0E0E05CFE4F958F88
:100650008093590101C08081FF91EF919F918F910B
:100660002F910F900FBE0F901F9018951F920F9211
:100670000FB60F9211242F933F938F939F93AF93B5
:10068000BF938091230190912401A0912501B09105
:1006900026013091220123E0230F2D3720F401960B
:1006A000A11DB11D05C026E8230F0296A11DB11D95
:1006B000209322018093230190932401A09325018C
:1006C000B09326018091270190912801A0912901E2
:1006D000B0912A010196A11DB11D8093270190932D
:1006E0002801A0932901B0932A01BF91AF919F9156
:1006F0008F913F912F910F900FBE0F901F901895E3
:10070000789484B5826084BD84B5816084BD85B5EC
:10071000826085BD85B5816085BD80916E008160F8
:1007200080936E001092810080918100826080939E
:1007300081008091810081608093810080918000A0
:100740008160809380008091B10084608093B100CB
:100750008091B00081608093B00080917A008460C5
:1007600080937A0080917A00826080937A008091F1
:100770007A00816080937A0080917A00806880930B
:100780007A001092C10083E00E94880085E00E94F8
:10079000880086E00E94880088E00E94880089E046
:1007A0000E9488008AE00E948800D9EF54EF452E0D
:1007B00055245394612C712C6FE7A62E6EE3B62E50
:1007C0007CE7C72E70E0D72E09E910E0EDEAEE2EA7
:1007D000E0E0FE2E6091DD017091DE016D5E7E4FE6
:1007E0006115710561F0FB0101900020E9F7319777
:1007F000AF01461B570B80E491E00E94820161E04B
:1008000085E00E94B1010E94220260E085E00E9422
:10081000B1010E94220261E086E00E94B1010E94C3
:10082000220260E086E00E94B1010E94220261E0A3
:1008300089E00E94B1010E94220260E089E00E94EA
:10084000B1010E94220261E08AE00E94B1010E948F
:10085000220260E08AE00E94B1010E94220280919F
:100860000001883019F4F601C49171C08F3F09F07E
:10087000A5C088E080930001F601C491CF3F09F440
:100880009DC0C13001F1C23009F43FC0C1115FC049
:1008900014BC15BC84B5826084BD85B5816085BDFE
:1008A000F8018491E82FF0E0EE0FFF1FE358FF4FAF
:1008B000859194919093330180933201F701849153
:1008C0008093310146C01092800010928100809187
:1008D0008100886080938100809181008160809395
:1008E0008100F8018491E82FF0E0EE0FFF1FE3583C
:1008F000FF4F859194919093300180932F01F701E0
:10090000849180932E01C1E024C01092B000109217
:10091000B1008091B00082608093B0008091B100FE
:1009200081608093B100F801849190E0880F991F55
:1009300083589F4FFC012591349130932D012093D2
:100940002C01F701849180932B01C2E002C0C7FD06
:1009500035C088E00E948800CC2309F449C0C23029
:1009600009F459C0C130C1F480918100887F816051
:1009700080938100B0928900A09288004092380153
:100980005092390160923A0170923B0180916F0060
:10099000826080936F0012C0C23081F48FE7809331
:1009A000B30040923401509235016092360170924A
:1009B0003701809170008260809370000E94220253
:1009C00061E083E00E94B1010E94220260E083E0C6
:1009D0000E94B1010E9422028091DD019091DE010E
:1009E00001969093DE018093DD010E947801F2CEA2
:1009F00085B5887F836085BDD7BD40923C0150920C
:100A00003D0160923E0170923F0180916E008260D4
:100A100080936E00D3CF8091B100887F84608093F3
:100A2000B10089EFBCCFE0E4F1E01382128288EEDE
:100A300093E0A0E0B0E084839583A683B78385E04C
:100A400091E09183808385EC90E09587848784ECA6
:100A500090E09787868780EC90E0918B808B81EC8B
:100A600090E0938B828B82EC90E0958B848B86EC6C
:100A700090E0978B868B118E128E138E148E0895B4
:100A8000EE0FFF1F0590F491E02D099481E090E0B6
:0A0A9000F8940C944B05F894FFCF86
:100A9A00FF0000000005018201A7004C01D800B642
:100AAA0000CA0053657269616C20746573742023EF
:020ABA0000003A
:00000001FF
